{
  "address": "0x2084bF37Bf6fBE542D98E5C27cC2537343c50A2C",
  "abi": [
    {
      "inputs": [
        {
          "internalType": "uint256",
          "name": "_id",
          "type": "uint256"
        },
        {
          "internalType": "string",
          "name": "_iletisim",
          "type": "string"
        },
        {
          "internalType": "string",
          "name": "_konum",
          "type": "string"
        }
      ],
      "name": "buldugunuBildir",
      "outputs": [],
      "stateMutability": "nonpayable",
      "type": "function"
    },
    {
      "inputs": [
        {
          "internalType": "string",
          "name": "_isim",
          "type": "string"
        },
        {
          "internalType": "string",
          "name": "_aciklama",
          "type": "string"
        },
        {
          "internalType": "bool",
          "name": "_bulunduMu",
          "type": "bool"
        },
        {
          "internalType": "string",
          "name": "_soru",
          "type": "string"
        },
        {
          "internalType": "string",
          "name": "_konum",
          "type": "string"
        }
      ],
      "name": "esyaEkle",
      "outputs": [],
      "stateMutability": "nonpayable",
      "type": "function"
    },
    {
      "inputs": [
        {
          "internalType": "uint256",
          "name": "",
          "type": "uint256"
        }
      ],
      "name": "esyalar",
      "outputs": [
        {
          "internalType": "uint256",
          "name": "id",
          "type": "uint256"
        },
        {
          "internalType": "string",
          "name": "isim",
          "type": "string"
        },
        {
          "internalType": "string",
          "name": "aciklama",
          "type": "string"
        },
        {
          "internalType": "address",
          "name": "bildiren",
          "type": "address"
        },
        {
          "internalType": "enum YourContract.Status",
          "name": "durum",
          "type": "uint8"
        },
        {
          "internalType": "address",
          "name": "bulanKisi",
          "type": "address"
        },
        {
          "internalType": "string",
          "name": "iletisimNotu",
          "type": "string"
        },
        {
          "internalType": "string",
          "name": "gizliKonum",
          "type": "string"
        },
        {
          "internalType": "string",
          "name": "dogrulamaSorusu",
          "type": "string"
        },
        {
          "internalType": "address",
          "name": "onayliKisi",
          "type": "address"
        }
      ],
      "stateMutability": "view",
      "type": "function"
    },
    {
      "inputs": [
        {
          "internalType": "uint256",
          "name": "_id",
          "type": "uint256"
        },
        {
          "internalType": "address",
          "name": "_onaylanacakKisi",
          "type": "address"
        }
      ],
      "name": "kisiOnayla",
      "outputs": [],
      "stateMutability": "nonpayable",
      "type": "function"
    },
    {
      "inputs": [],
      "name": "sonrakiId",
      "outputs": [
        {
          "internalType": "uint256",
          "name": "",
          "type": "uint256"
        }
      ],
      "stateMutability": "view",
      "type": "function"
    },
    {
      "inputs": [
        {
          "internalType": "uint256",
          "name": "_id",
          "type": "uint256"
        },
        {
          "internalType": "string",
          "name": "_cevap",
          "type": "string"
        },
        {
          "internalType": "string",
          "name": "_iletisim",
          "type": "string"
        }
      ],
      "name": "talepOlustur",
      "outputs": [],
      "stateMutability": "nonpayable",
      "type": "function"
    },
    {
      "inputs": [
        {
          "internalType": "uint256",
          "name": "_id",
          "type": "uint256"
        }
      ],
      "name": "teslimEdildiIsaretle",
      "outputs": [],
      "stateMutability": "nonpayable",
      "type": "function"
    }
  ],
  "transactionHash": "0xd67dd4f00f384fde7c4cbf6253575eff9fbb2113975d32df7604196f940c7ebf",
  "args": [],
  "numDeployments": 5,
  "solcInputHash": "6ee33f2ab6d17006e7204f0b01d19f70",
  "bytecode": "0x6080604052348015600f57600080fd5b50610e8c8061001f6000396000f3fe608060405234801561001057600080fd5b506004361061007d5760003560e01c80639d9840941161005b5780639d984094146100dc578063a1474952146100f3578063a66e338d14610106578063bd5b4ac41461011957600080fd5b806312f0ecfc146100825780638bfc4311146100b4578063999a17e7146100c9575b600080fd5b610095610090366004610908565b61012c565b6040516100ab9a99989796959493929190610987565b60405180910390f35b6100c76100c2366004610b06565b61043f565b005b6100c76100d7366004610b06565b61052a565b6100e560015481565b6040519081526020016100ab565b6100c7610101366004610908565b610612565b6100c7610114366004610b78565b61069f565b6100c7610127366004610c50565b61086e565b6000602081905290815260409020805460018201805491929161014e90610c8c565b80601f016020809104026020016040519081016040528092919081815260200182805461017a90610c8c565b80156101c75780601f1061019c576101008083540402835291602001916101c7565b820191906000526020600020905b8154815290600101906020018083116101aa57829003601f168201915b5050505050908060020180546101dc90610c8c565b80601f016020809104026020016040519081016040528092919081815260200182805461020890610c8c565b80156102555780601f1061022a57610100808354040283529160200191610255565b820191906000526020600020905b81548152906001019060200180831161023857829003601f168201915b505050506003830154600484015460058501805494956001600160a01b0380851696600160a01b90950460ff1695509092169261029190610c8c565b80601f01602080910402602001604051908101604052809291908181526020018280546102bd90610c8c565b801561030a5780601f106102df5761010080835404028352916020019161030a565b820191906000526020600020905b8154815290600101906020018083116102ed57829003601f168201915b50505050509080600601805461031f90610c8c565b80601f016020809104026020016040519081016040528092919081815260200182805461034b90610c8c565b80156103985780601f1061036d57610100808354040283529160200191610398565b820191906000526020600020905b81548152906001019060200180831161037b57829003601f168201915b5050505050908060070180546103ad90610c8c565b80601f01602080910402602001604051908101604052809291908181526020018280546103d990610c8c565b80156104265780601f106103fb57610100808354040283529160200191610426565b820191906000526020600020905b81548152906001019060200180831161040957829003601f168201915b505050600890930154919250506001600160a01b03168a565b60008084815260208190526040902060030154600160a01b900460ff16600281111561046d5761046d610971565b146104b85760405162461bcd60e51b8152602060048201526016602482015275213a9032b9bcb0903d30ba32b710313ab63ab7323a9760511b60448201526064015b60405180910390fd5b60008381526020819052604090206004810180546001600160a01b031916331790556005016104e78382610d15565b5060008381526020819052604090206006016105038282610d15565b5050506000908152602081905260409020600301805460ff60a01b1916600160a01b179055565b6001600084815260208190526040902060030154600160a01b900460ff16600281111561055957610559610971565b146105b05760405162461bcd60e51b815260206004820152602160248201527f42752065737961206963696e2074616c6570206f6c7573747572756c616d617a6044820152601760f91b60648201526084016104af565b6000838152602081815260409182902060040180546001600160a01b0319163317905590516105e3918491849101610dd4565b60408051601f1981840301815291815260008581526020819052206005019061060c9082610d15565b50505050565b6000818152602081905260409020600301546001600160a01b0316331461067b5760405162461bcd60e51b815260206004820152601a60248201527f53616465636520736168696269206b617061746162696c69722e00000000000060448201526064016104af565b6000908152602081905260409020600301805460ff60a01b1916600160a11b179055565b6040518061014001604052806001548152602001868152602001858152602001336001600160a01b03168152602001846106da5760006106dd565b60015b60028111156106ee576106ee610971565b8152602001846106ff576000610701565b335b6001600160a01b03168152604080516020818101835260008083528185019290925282840186905260608401879052608090930181905260018054825281845291902083518155918301519082019061075a9082610d15565b506040820151600282019061076f9082610d15565b5060608201516003820180546001600160a01b039092166001600160a01b03198316811782556080850151926001600160a81b03191617600160a01b8360028111156107bd576107bd610971565b021790555060a08201516004820180546001600160a01b0319166001600160a01b0390921691909117905560c082015160058201906107fc9082610d15565b5060e082015160068201906108119082610d15565b5061010082015160078201906108279082610d15565b506101209190910151600890910180546001600160a01b0319166001600160a01b039092169190911790556001805490600061086283610e2f565b91905055505050505050565b6000828152602081905260409020600301546001600160a01b031633146108d75760405162461bcd60e51b815260206004820152601c60248201527f53616465636520736168696269206f6e61796c61796162696c69722e0000000060448201526064016104af565b60009182526020829052604090912060080180546001600160a01b0319166001600160a01b03909216919091179055565b60006020828403121561091a57600080fd5b5035919050565b60005b8381101561093c578181015183820152602001610924565b50506000910152565b6000815180845261095d816020860160208601610921565b601f01601f19169290920160200192915050565b634e487b7160e01b600052602160045260246000fd5b8a8152610140602082015260006109a261014083018c610945565b82810360408401526109b4818c610945565b6001600160a01b038b1660608501529050600389106109e357634e487b7160e01b600052602160045260246000fd5b8860808401526109fe60a08401896001600160a01b03169052565b82810360c0840152610a108188610945565b905082810360e0840152610a248187610945565b9050828103610100840152610a398186610945565b915050610a526101208301846001600160a01b03169052565b9b9a5050505050505050505050565b634e487b7160e01b600052604160045260246000fd5b600082601f830112610a8857600080fd5b813567ffffffffffffffff811115610aa257610aa2610a61565b604051601f8201601f19908116603f0116810167ffffffffffffffff81118282101715610ad157610ad1610a61565b604052818152838201602001851015610ae957600080fd5b816020850160208301376000918101602001919091529392505050565b600080600060608486031215610b1b57600080fd5b83359250602084013567ffffffffffffffff811115610b3957600080fd5b610b4586828701610a77565b925050604084013567ffffffffffffffff811115610b6257600080fd5b610b6e86828701610a77565b9150509250925092565b600080600080600060a08688031215610b9057600080fd5b853567ffffffffffffffff811115610ba757600080fd5b610bb388828901610a77565b955050602086013567ffffffffffffffff811115610bd057600080fd5b610bdc88828901610a77565b94505060408601358015158114610bf257600080fd5b9250606086013567ffffffffffffffff811115610c0e57600080fd5b610c1a88828901610a77565b925050608086013567ffffffffffffffff811115610c3757600080fd5b610c4388828901610a77565b9150509295509295909350565b60008060408385031215610c6357600080fd5b8235915060208301356001600160a01b0381168114610c8157600080fd5b809150509250929050565b600181811c90821680610ca057607f821691505b602082108103610cc057634e487b7160e01b600052602260045260246000fd5b50919050565b601f821115610d1057806000526020600020601f840160051c81016020851015610ced5750805b601f840160051c820191505b81811015610d0d5760008155600101610cf9565b50505b505050565b815167ffffffffffffffff811115610d2f57610d2f610a61565b610d4381610d3d8454610c8c565b84610cc6565b6020601f821160018114610d775760008315610d5f5750848201515b600019600385901b1c1916600184901b178455610d0d565b600084815260208120601f198516915b82811015610da75787850151825560209485019460019092019101610d87565b5084821015610dc55786840151600019600387901b60f8161c191681555b50505050600190811b01905550565b66021a2ab20a81d160cd1b815260008351610df6816007850160208801610921565b6c0103e1024a622aa24a9a4a69d1609d1b6007918401918201528351610e23816014840160208801610921565b01601401949350505050565b600060018201610e4f57634e487b7160e01b600052601160045260246000fd5b506001019056fea26469706673582212202a812baf3d02259a6f8323560fb2d8637ab3d477262737a3d1160de93cf4229064736f6c634300081e0033",
  "devdoc": {
    "kind": "dev",
    "methods": {},
    "version": 1
  },
  "userdoc": {
    "kind": "user",
    "methods": {},
    "version": 1
  },
  "storageLayout": {
    "storage": [
      {
        "astId": 32,
        "contract": "contracts/YourContract.sol:YourContract",
        "label": "esyalar",
        "offset": 0,
        "slot": "0",
        "type": "t_mapping(t_uint256,t_struct(Esya)27_storage)"
      },
      {
        "astId": 34,
        "contract": "contracts/YourContract.sol:YourContract",
        "label": "sonrakiId",
        "offset": 0,
        "slot": "1",
        "type": "t_uint256"
      }
    ],
    "types": {
      "t_address": {
        "encoding": "inplace",
        "label": "address",
        "numberOfBytes": "20"
      },
      "t_enum(Status)5": {
        "encoding": "inplace",
        "label": "enum YourContract.Status",
        "numberOfBytes": "1"
      },
      "t_mapping(t_uint256,t_struct(Esya)27_storage)": {
        "encoding": "mapping",
        "key": "t_uint256",
        "label": "mapping(uint256 => struct YourContract.Esya)",
        "numberOfBytes": "32",
        "value": "t_struct(Esya)27_storage"
      },
      "t_string_storage": {
        "encoding": "bytes",
        "label": "string",
        "numberOfBytes": "32"
      },
      "t_struct(Esya)27_storage": {
        "encoding": "inplace",
        "label": "struct YourContract.Esya",
        "members": [
          {
            "astId": 7,
            "contract": "contracts/YourContract.sol:YourContract",
            "label": "id",
            "offset": 0,
            "slot": "0",
            "type": "t_uint256"
          },
          {
            "astId": 9,
            "contract": "contracts/YourContract.sol:YourContract",
            "label": "isim",
            "offset": 0,
            "slot": "1",
            "type": "t_string_storage"
          },
          {
            "astId": 11,
            "contract": "contracts/YourContract.sol:YourContract",
            "label": "aciklama",
            "offset": 0,
            "slot": "2",
            "type": "t_string_storage"
          },
          {
            "astId": 13,
            "contract": "contracts/YourContract.sol:YourContract",
            "label": "bildiren",
            "offset": 0,
            "slot": "3",
            "type": "t_address"
          },
          {
            "astId": 16,
            "contract": "contracts/YourContract.sol:YourContract",
            "label": "durum",
            "offset": 20,
            "slot": "3",
            "type": "t_enum(Status)5"
          },
          {
            "astId": 18,
            "contract": "contracts/YourContract.sol:YourContract",
            "label": "bulanKisi",
            "offset": 0,
            "slot": "4",
            "type": "t_address"
          },
          {
            "astId": 20,
            "contract": "contracts/YourContract.sol:YourContract",
            "label": "iletisimNotu",
            "offset": 0,
            "slot": "5",
            "type": "t_string_storage"
          },
          {
            "astId": 22,
            "contract": "contracts/YourContract.sol:YourContract",
            "label": "gizliKonum",
            "offset": 0,
            "slot": "6",
            "type": "t_string_storage"
          },
          {
            "astId": 24,
            "contract": "contracts/YourContract.sol:YourContract",
            "label": "dogrulamaSorusu",
            "offset": 0,
            "slot": "7",
            "type": "t_string_storage"
          },
          {
            "astId": 26,
            "contract": "contracts/YourContract.sol:YourContract",
            "label": "onayliKisi",
            "offset": 0,
            "slot": "8",
            "type": "t_address"
          }
        ],
        "numberOfBytes": "288"
      },
      "t_uint256": {
        "encoding": "inplace",
        "label": "uint256",
        "numberOfBytes": "32"
      }
    }
  }
}