{
  "address": "0x8FE60B0793A56E5AC6A3c6A4231C19F8d59B9151",
  "abi": [
    {
      "inputs": [
        {
          "internalType": "uint256",
          "name": "_id",
          "type": "uint256"
        },
        {
          "internalType": "string",
          "name": "_not",
          "type": "string"
        }
      ],
      "name": "buldugunuBildir",
      "outputs": [],
      "stateMutability": "nonpayable",
      "type": "function"
    },
    {
      "inputs": [
        {
          "internalType": "string",
          "name": "_isim",
          "type": "string"
        },
        {
          "internalType": "string",
          "name": "_aciklama",
          "type": "string"
        },
        {
          "internalType": "bool",
          "name": "_bulunduMu",
          "type": "bool"
        }
      ],
      "name": "esyaEkle",
      "outputs": [],
      "stateMutability": "nonpayable",
      "type": "function"
    },
    {
      "inputs": [
        {
          "internalType": "uint256",
          "name": "",
          "type": "uint256"
        }
      ],
      "name": "esyalar",
      "outputs": [
        {
          "internalType": "uint256",
          "name": "id",
          "type": "uint256"
        },
        {
          "internalType": "string",
          "name": "isim",
          "type": "string"
        },
        {
          "internalType": "string",
          "name": "aciklama",
          "type": "string"
        },
        {
          "internalType": "address",
          "name": "bildiren",
          "type": "address"
        },
        {
          "internalType": "enum YourContract.Status",
          "name": "durum",
          "type": "uint8"
        },
        {
          "internalType": "address",
          "name": "bulanKisi",
          "type": "address"
        },
        {
          "internalType": "string",
          "name": "iletisimNotu",
          "type": "string"
        }
      ],
      "stateMutability": "view",
      "type": "function"
    },
    {
      "inputs": [],
      "name": "sonrakiId",
      "outputs": [
        {
          "internalType": "uint256",
          "name": "",
          "type": "uint256"
        }
      ],
      "stateMutability": "view",
      "type": "function"
    },
    {
      "inputs": [
        {
          "internalType": "uint256",
          "name": "_id",
          "type": "uint256"
        }
      ],
      "name": "teslimEdildiIsaretle",
      "outputs": [],
      "stateMutability": "nonpayable",
      "type": "function"
    }
  ],
  "transactionHash": "0x2642e7c6e6d9fcac8939d1144f82438b57af4b1885946b4b8e37bce254ed418c",
  "args": [],
  "numDeployments": 2,
  "solcInputHash": "ca8d0592dff085151f7f5bbd3cdd7135",
  "bytecode": "0x6080604052348015600f57600080fd5b506109a58061001f6000396000f3fe608060405234801561001057600080fd5b50600436106100575760003560e01c806312f0ecfc1461005c57806373b3ac881461008b5780637a6bcf9d146100a05780639d984094146100b3578063a1474952146100ca575b600080fd5b61006f61006a36600461058e565b6100dd565b6040516100829796959493929190610603565b60405180910390f35b61009e610099366004610738565b6102c5565b005b61009e6100ae36600461077f565b6103a2565b6100bc60015481565b604051908152602001610082565b61009e6100d836600461058e565b6104f2565b600060208190529081526040902080546001820180549192916100ff90610801565b80601f016020809104026020016040519081016040528092919081815260200182805461012b90610801565b80156101785780601f1061014d57610100808354040283529160200191610178565b820191906000526020600020905b81548152906001019060200180831161015b57829003601f168201915b50505050509080600201805461018d90610801565b80601f01602080910402602001604051908101604052809291908181526020018280546101b990610801565b80156102065780601f106101db57610100808354040283529160200191610206565b820191906000526020600020905b8154815290600101906020018083116101e957829003601f168201915b505050506003830154600484015460058501805494956001600160a01b0380851696600160a01b90950460ff1695509092169261024290610801565b80601f016020809104026020016040519081016040528092919081815260200182805461026e90610801565b80156102bb5780601f10610290576101008083540402835291602001916102bb565b820191906000526020600020905b81548152906001019060200180831161029e57829003601f168201915b5050505050905087565b60008083815260208190526040902060030154600160a01b900460ff1660028111156102f3576102f36105ed565b146103595760405162461bcd60e51b815260206004820152602b60248201527f42752065737961207a6174656e2062756c756e6d75732076657961207465736c60448201526a34b69032b234b636b4b99760a91b60648201526084015b60405180910390fd5b600082815260208190526040902060038101805460ff60a01b1916600160a01b1790556004810180546001600160a01b0319163317905560050161039d8282610889565b505050565b6040518060e001604052806001548152602001848152602001838152602001336001600160a01b03168152602001826103dc5760006103df565b60015b60028111156103f0576103f06105ed565b8152600060208083018290526040805180830182528381529381019390935260018054835282825292909120835181559083015190918201906104339082610889565b50604082015160028201906104489082610889565b5060608201516003820180546001600160a01b039092166001600160a01b03198316811782556080850151926001600160a81b03191617600160a01b836002811115610496576104966105ed565b021790555060a08201516004820180546001600160a01b0319166001600160a01b0390921691909117905560c082015160058201906104d59082610889565b505060018054915060006104e883610948565b9190505550505050565b6000818152602081905260409020600301546001600160a01b0316331461056a5760405162461bcd60e51b815260206004820152602660248201527f53616465636520696c616e6920766572656e206b697369206f6e61796c6179616044820152653134b634b91760d11b6064820152608401610350565b6000908152602081905260409020600301805460ff60a01b1916600160a11b179055565b6000602082840312156105a057600080fd5b5035919050565b6000815180845260005b818110156105cd576020818501810151868301820152016105b1565b506000602082860101526020601f19601f83011685010191505092915050565b634e487b7160e01b600052602160045260246000fd5b87815260e06020820152600061061c60e08301896105a7565b828103604084015261062e81896105a7565b6001600160a01b038816606085015290506003861061065d57634e487b7160e01b600052602160045260246000fd5b608083018690526001600160a01b03851660a084015282810360c084015261068581856105a7565b9a9950505050505050505050565b634e487b7160e01b600052604160045260246000fd5b600082601f8301126106ba57600080fd5b813567ffffffffffffffff8111156106d4576106d4610693565b604051601f8201601f19908116603f0116810167ffffffffffffffff8111828210171561070357610703610693565b60405281815283820160200185101561071b57600080fd5b816020850160208301376000918101602001919091529392505050565b6000806040838503121561074b57600080fd5b82359150602083013567ffffffffffffffff81111561076957600080fd5b610775858286016106a9565b9150509250929050565b60008060006060848603121561079457600080fd5b833567ffffffffffffffff8111156107ab57600080fd5b6107b7868287016106a9565b935050602084013567ffffffffffffffff8111156107d457600080fd5b6107e0868287016106a9565b925050604084013580151581146107f657600080fd5b809150509250925092565b600181811c9082168061081557607f821691505b60208210810361083557634e487b7160e01b600052602260045260246000fd5b50919050565b601f82111561039d57806000526020600020601f840160051c810160208510156108625750805b601f840160051c820191505b81811015610882576000815560010161086e565b5050505050565b815167ffffffffffffffff8111156108a3576108a3610693565b6108b7816108b18454610801565b8461083b565b6020601f8211600181146108eb57600083156108d35750848201515b600019600385901b1c1916600184901b178455610882565b600084815260208120601f198516915b8281101561091b57878501518255602094850194600190920191016108fb565b50848210156109395786840151600019600387901b60f8161c191681555b50505050600190811b01905550565b60006001820161096857634e487b7160e01b600052601160045260246000fd5b506001019056fea26469706673582212208e4fd98d3ed2dcf371aef69083387a40a48690a179a4c25614d5f39b24a7690f64736f6c634300081e0033",
  "devdoc": {
    "kind": "dev",
    "methods": {},
    "version": 1
  },
  "userdoc": {
    "kind": "user",
    "methods": {},
    "version": 1
  },
  "storageLayout": {
    "storage": [
      {
        "astId": 26,
        "contract": "contracts/YourContract.sol:YourContract",
        "label": "esyalar",
        "offset": 0,
        "slot": "0",
        "type": "t_mapping(t_uint256,t_struct(Esya)21_storage)"
      },
      {
        "astId": 28,
        "contract": "contracts/YourContract.sol:YourContract",
        "label": "sonrakiId",
        "offset": 0,
        "slot": "1",
        "type": "t_uint256"
      }
    ],
    "types": {
      "t_address": {
        "encoding": "inplace",
        "label": "address",
        "numberOfBytes": "20"
      },
      "t_enum(Status)5": {
        "encoding": "inplace",
        "label": "enum YourContract.Status",
        "numberOfBytes": "1"
      },
      "t_mapping(t_uint256,t_struct(Esya)21_storage)": {
        "encoding": "mapping",
        "key": "t_uint256",
        "label": "mapping(uint256 => struct YourContract.Esya)",
        "numberOfBytes": "32",
        "value": "t_struct(Esya)21_storage"
      },
      "t_string_storage": {
        "encoding": "bytes",
        "label": "string",
        "numberOfBytes": "32"
      },
      "t_struct(Esya)21_storage": {
        "encoding": "inplace",
        "label": "struct YourContract.Esya",
        "members": [
          {
            "astId": 7,
            "contract": "contracts/YourContract.sol:YourContract",
            "label": "id",
            "offset": 0,
            "slot": "0",
            "type": "t_uint256"
          },
          {
            "astId": 9,
            "contract": "contracts/YourContract.sol:YourContract",
            "label": "isim",
            "offset": 0,
            "slot": "1",
            "type": "t_string_storage"
          },
          {
            "astId": 11,
            "contract": "contracts/YourContract.sol:YourContract",
            "label": "aciklama",
            "offset": 0,
            "slot": "2",
            "type": "t_string_storage"
          },
          {
            "astId": 13,
            "contract": "contracts/YourContract.sol:YourContract",
            "label": "bildiren",
            "offset": 0,
            "slot": "3",
            "type": "t_address"
          },
          {
            "astId": 16,
            "contract": "contracts/YourContract.sol:YourContract",
            "label": "durum",
            "offset": 20,
            "slot": "3",
            "type": "t_enum(Status)5"
          },
          {
            "astId": 18,
            "contract": "contracts/YourContract.sol:YourContract",
            "label": "bulanKisi",
            "offset": 0,
            "slot": "4",
            "type": "t_address"
          },
          {
            "astId": 20,
            "contract": "contracts/YourContract.sol:YourContract",
            "label": "iletisimNotu",
            "offset": 0,
            "slot": "5",
            "type": "t_string_storage"
          }
        ],
        "numberOfBytes": "192"
      },
      "t_uint256": {
        "encoding": "inplace",
        "label": "uint256",
        "numberOfBytes": "32"
      }
    }
  }
}