{
  "address": "0x60c646C21D8554eCF5DFc4a1B4e24BE81369906b",
  "abi": [
    {
      "inputs": [
        {
          "internalType": "uint256",
          "name": "_id",
          "type": "uint256"
        },
        {
          "internalType": "string",
          "name": "_iletisim",
          "type": "string"
        },
        {
          "internalType": "string",
          "name": "_konum",
          "type": "string"
        }
      ],
      "name": "buldugunuBildir",
      "outputs": [],
      "stateMutability": "nonpayable",
      "type": "function"
    },
    {
      "inputs": [
        {
          "internalType": "string",
          "name": "_isim",
          "type": "string"
        },
        {
          "internalType": "string",
          "name": "_aciklama",
          "type": "string"
        },
        {
          "internalType": "bool",
          "name": "_bulunduMu",
          "type": "bool"
        },
        {
          "internalType": "string",
          "name": "_soru",
          "type": "string"
        }
      ],
      "name": "esyaEkle",
      "outputs": [],
      "stateMutability": "nonpayable",
      "type": "function"
    },
    {
      "inputs": [
        {
          "internalType": "uint256",
          "name": "",
          "type": "uint256"
        }
      ],
      "name": "esyalar",
      "outputs": [
        {
          "internalType": "uint256",
          "name": "id",
          "type": "uint256"
        },
        {
          "internalType": "string",
          "name": "isim",
          "type": "string"
        },
        {
          "internalType": "string",
          "name": "aciklama",
          "type": "string"
        },
        {
          "internalType": "address",
          "name": "bildiren",
          "type": "address"
        },
        {
          "internalType": "enum YourContract.Status",
          "name": "durum",
          "type": "uint8"
        },
        {
          "internalType": "address",
          "name": "bulanKisi",
          "type": "address"
        },
        {
          "internalType": "string",
          "name": "iletisimNotu",
          "type": "string"
        },
        {
          "internalType": "string",
          "name": "gizliKonum",
          "type": "string"
        },
        {
          "internalType": "string",
          "name": "dogrulamaSorusu",
          "type": "string"
        },
        {
          "internalType": "address",
          "name": "onayliKisi",
          "type": "address"
        }
      ],
      "stateMutability": "view",
      "type": "function"
    },
    {
      "inputs": [
        {
          "internalType": "uint256",
          "name": "_id",
          "type": "uint256"
        },
        {
          "internalType": "address",
          "name": "_onaylanacakKisi",
          "type": "address"
        }
      ],
      "name": "kisiOnayla",
      "outputs": [],
      "stateMutability": "nonpayable",
      "type": "function"
    },
    {
      "inputs": [],
      "name": "sonrakiId",
      "outputs": [
        {
          "internalType": "uint256",
          "name": "",
          "type": "uint256"
        }
      ],
      "stateMutability": "view",
      "type": "function"
    },
    {
      "inputs": [
        {
          "internalType": "uint256",
          "name": "_id",
          "type": "uint256"
        }
      ],
      "name": "teslimEdildiIsaretle",
      "outputs": [],
      "stateMutability": "nonpayable",
      "type": "function"
    }
  ],
  "transactionHash": "0x126ec892cd8e245fdaf399d4e45be8858d6ab77e53e5f7c588a107c455744858",
  "args": [],
  "numDeployments": 3,
  "solcInputHash": "9ed85253094e391cd9116b6623c3f500",
  "bytecode": "0x6080604052348015600f57600080fd5b50610cd68061001f6000396000f3fe608060405234801561001057600080fd5b50600436106100625760003560e01c806312f0ecfc146100675780638bfc4311146100995780639d984094146100ae578063a1474952146100c5578063bd5b4ac4146100d8578063bea79863146100eb575b600080fd5b61007a6100753660046107e3565b6100fe565b6040516100909a99989796959493929190610858565b60405180910390f35b6100ac6100a73660046109d7565b610411565b005b6100b760015481565b604051908152602001610090565b6100ac6100d33660046107e3565b6104fc565b6100ac6100e6366004610a49565b610589565b6100ac6100f9366004610a85565b610623565b6000602081905290815260409020805460018201805491929161012090610b31565b80601f016020809104026020016040519081016040528092919081815260200182805461014c90610b31565b80156101995780601f1061016e57610100808354040283529160200191610199565b820191906000526020600020905b81548152906001019060200180831161017c57829003601f168201915b5050505050908060020180546101ae90610b31565b80601f01602080910402602001604051908101604052809291908181526020018280546101da90610b31565b80156102275780601f106101fc57610100808354040283529160200191610227565b820191906000526020600020905b81548152906001019060200180831161020a57829003601f168201915b505050506003830154600484015460058501805494956001600160a01b0380851696600160a01b90950460ff1695509092169261026390610b31565b80601f016020809104026020016040519081016040528092919081815260200182805461028f90610b31565b80156102dc5780601f106102b1576101008083540402835291602001916102dc565b820191906000526020600020905b8154815290600101906020018083116102bf57829003601f168201915b5050505050908060060180546102f190610b31565b80601f016020809104026020016040519081016040528092919081815260200182805461031d90610b31565b801561036a5780601f1061033f5761010080835404028352916020019161036a565b820191906000526020600020905b81548152906001019060200180831161034d57829003601f168201915b50505050509080600701805461037f90610b31565b80601f01602080910402602001604051908101604052809291908181526020018280546103ab90610b31565b80156103f85780601f106103cd576101008083540402835291602001916103f8565b820191906000526020600020905b8154815290600101906020018083116103db57829003601f168201915b505050600890930154919250506001600160a01b03168a565b60008084815260208190526040902060030154600160a01b900460ff16600281111561043f5761043f610842565b1461048a5760405162461bcd60e51b8152602060048201526016602482015275213a9032b9bcb0903d30ba32b710313ab63ab7323a9760511b60448201526064015b60405180910390fd5b60008381526020819052604090206004810180546001600160a01b031916331790556005016104b98382610bba565b5060008381526020819052604090206006016104d58282610bba565b5050506000908152602081905260409020600301805460ff60a01b1916600160a01b179055565b6000818152602081905260409020600301546001600160a01b031633146105655760405162461bcd60e51b815260206004820152601a60248201527f53616465636520736168696269206b617061746162696c69722e0000000000006044820152606401610481565b6000908152602081905260409020600301805460ff60a01b1916600160a11b179055565b6000828152602081905260409020600301546001600160a01b031633146105f25760405162461bcd60e51b815260206004820152601c60248201527f53616465636520736168696269206f6e61796c61796162696c69722e000000006044820152606401610481565b60009182526020829052604090912060080180546001600160a01b0319166001600160a01b03909216919091179055565b6040518061014001604052806001548152602001858152602001848152602001336001600160a01b031681526020018361065e576000610661565b60015b600281111561067257610672610842565b815260006020808301829052604080518083018252838152818501528051808301825283815260608501526080840186905260a090930182905260018054835282825292909120835181559083015190918201906106d09082610bba565b50604082015160028201906106e59082610bba565b5060608201516003820180546001600160a01b039092166001600160a01b03198316811782556080850151926001600160a81b03191617600160a01b83600281111561073357610733610842565b021790555060a08201516004820180546001600160a01b0319166001600160a01b0390921691909117905560c082015160058201906107729082610bba565b5060e082015160068201906107879082610bba565b50610100820151600782019061079d9082610bba565b506101209190910151600890910180546001600160a01b0319166001600160a01b03909216919091179055600180549060006107d883610c79565b919050555050505050565b6000602082840312156107f557600080fd5b5035919050565b6000815180845260005b8181101561082257602081850181015186830182015201610806565b506000602082860101526020601f19601f83011685010191505092915050565b634e487b7160e01b600052602160045260246000fd5b8a81526101406020820152600061087361014083018c6107fc565b8281036040840152610885818c6107fc565b6001600160a01b038b1660608501529050600389106108b457634e487b7160e01b600052602160045260246000fd5b8860808401526108cf60a08401896001600160a01b03169052565b82810360c08401526108e181886107fc565b905082810360e08401526108f581876107fc565b905082810361010084015261090a81866107fc565b9150506109236101208301846001600160a01b03169052565b9b9a5050505050505050505050565b634e487b7160e01b600052604160045260246000fd5b600082601f83011261095957600080fd5b813567ffffffffffffffff81111561097357610973610932565b604051601f8201601f19908116603f0116810167ffffffffffffffff811182821017156109a2576109a2610932565b6040528181528382016020018510156109ba57600080fd5b816020850160208301376000918101602001919091529392505050565b6000806000606084860312156109ec57600080fd5b83359250602084013567ffffffffffffffff811115610a0a57600080fd5b610a1686828701610948565b925050604084013567ffffffffffffffff811115610a3357600080fd5b610a3f86828701610948565b9150509250925092565b60008060408385031215610a5c57600080fd5b8235915060208301356001600160a01b0381168114610a7a57600080fd5b809150509250929050565b60008060008060808587031215610a9b57600080fd5b843567ffffffffffffffff811115610ab257600080fd5b610abe87828801610948565b945050602085013567ffffffffffffffff811115610adb57600080fd5b610ae787828801610948565b93505060408501358015158114610afd57600080fd5b9150606085013567ffffffffffffffff811115610b1957600080fd5b610b2587828801610948565b91505092959194509250565b600181811c90821680610b4557607f821691505b602082108103610b6557634e487b7160e01b600052602260045260246000fd5b50919050565b601f821115610bb557806000526020600020601f840160051c81016020851015610b925750805b601f840160051c820191505b81811015610bb25760008155600101610b9e565b50505b505050565b815167ffffffffffffffff811115610bd457610bd4610932565b610be881610be28454610b31565b84610b6b565b6020601f821160018114610c1c5760008315610c045750848201515b600019600385901b1c1916600184901b178455610bb2565b600084815260208120601f198516915b82811015610c4c5787850151825560209485019460019092019101610c2c565b5084821015610c6a5786840151600019600387901b60f8161c191681555b50505050600190811b01905550565b600060018201610c9957634e487b7160e01b600052601160045260246000fd5b506001019056fea264697066735822122062e3c82f52cc61db0416a42d4004e235807c22ea23c9b8e0590d6d43d7a906ab64736f6c634300081e0033",
  "devdoc": {
    "kind": "dev",
    "methods": {},
    "version": 1
  },
  "userdoc": {
    "kind": "user",
    "methods": {},
    "version": 1
  },
  "storageLayout": {
    "storage": [
      {
        "astId": 32,
        "contract": "contracts/YourContract.sol:YourContract",
        "label": "esyalar",
        "offset": 0,
        "slot": "0",
        "type": "t_mapping(t_uint256,t_struct(Esya)27_storage)"
      },
      {
        "astId": 34,
        "contract": "contracts/YourContract.sol:YourContract",
        "label": "sonrakiId",
        "offset": 0,
        "slot": "1",
        "type": "t_uint256"
      }
    ],
    "types": {
      "t_address": {
        "encoding": "inplace",
        "label": "address",
        "numberOfBytes": "20"
      },
      "t_enum(Status)5": {
        "encoding": "inplace",
        "label": "enum YourContract.Status",
        "numberOfBytes": "1"
      },
      "t_mapping(t_uint256,t_struct(Esya)27_storage)": {
        "encoding": "mapping",
        "key": "t_uint256",
        "label": "mapping(uint256 => struct YourContract.Esya)",
        "numberOfBytes": "32",
        "value": "t_struct(Esya)27_storage"
      },
      "t_string_storage": {
        "encoding": "bytes",
        "label": "string",
        "numberOfBytes": "32"
      },
      "t_struct(Esya)27_storage": {
        "encoding": "inplace",
        "label": "struct YourContract.Esya",
        "members": [
          {
            "astId": 7,
            "contract": "contracts/YourContract.sol:YourContract",
            "label": "id",
            "offset": 0,
            "slot": "0",
            "type": "t_uint256"
          },
          {
            "astId": 9,
            "contract": "contracts/YourContract.sol:YourContract",
            "label": "isim",
            "offset": 0,
            "slot": "1",
            "type": "t_string_storage"
          },
          {
            "astId": 11,
            "contract": "contracts/YourContract.sol:YourContract",
            "label": "aciklama",
            "offset": 0,
            "slot": "2",
            "type": "t_string_storage"
          },
          {
            "astId": 13,
            "contract": "contracts/YourContract.sol:YourContract",
            "label": "bildiren",
            "offset": 0,
            "slot": "3",
            "type": "t_address"
          },
          {
            "astId": 16,
            "contract": "contracts/YourContract.sol:YourContract",
            "label": "durum",
            "offset": 20,
            "slot": "3",
            "type": "t_enum(Status)5"
          },
          {
            "astId": 18,
            "contract": "contracts/YourContract.sol:YourContract",
            "label": "bulanKisi",
            "offset": 0,
            "slot": "4",
            "type": "t_address"
          },
          {
            "astId": 20,
            "contract": "contracts/YourContract.sol:YourContract",
            "label": "iletisimNotu",
            "offset": 0,
            "slot": "5",
            "type": "t_string_storage"
          },
          {
            "astId": 22,
            "contract": "contracts/YourContract.sol:YourContract",
            "label": "gizliKonum",
            "offset": 0,
            "slot": "6",
            "type": "t_string_storage"
          },
          {
            "astId": 24,
            "contract": "contracts/YourContract.sol:YourContract",
            "label": "dogrulamaSorusu",
            "offset": 0,
            "slot": "7",
            "type": "t_string_storage"
          },
          {
            "astId": 26,
            "contract": "contracts/YourContract.sol:YourContract",
            "label": "onayliKisi",
            "offset": 0,
            "slot": "8",
            "type": "t_address"
          }
        ],
        "numberOfBytes": "288"
      },
      "t_uint256": {
        "encoding": "inplace",
        "label": "uint256",
        "numberOfBytes": "32"
      }
    }
  }
}