{
  "address": "0x1012197d7808e001FbF7D4Ef260ABb095270234a",
  "abi": [
    {
      "inputs": [
        {
          "internalType": "uint256",
          "name": "_id",
          "type": "uint256"
        },
        {
          "internalType": "string",
          "name": "_iletisim",
          "type": "string"
        },
        {
          "internalType": "string",
          "name": "_konum",
          "type": "string"
        }
      ],
      "name": "buldugunuBildir",
      "outputs": [],
      "stateMutability": "nonpayable",
      "type": "function"
    },
    {
      "inputs": [
        {
          "internalType": "string",
          "name": "_isim",
          "type": "string"
        },
        {
          "internalType": "string",
          "name": "_aciklama",
          "type": "string"
        },
        {
          "internalType": "bool",
          "name": "_bulunduMu",
          "type": "bool"
        },
        {
          "internalType": "string",
          "name": "_soru",
          "type": "string"
        }
      ],
      "name": "esyaEkle",
      "outputs": [],
      "stateMutability": "nonpayable",
      "type": "function"
    },
    {
      "inputs": [
        {
          "internalType": "uint256",
          "name": "",
          "type": "uint256"
        }
      ],
      "name": "esyalar",
      "outputs": [
        {
          "internalType": "uint256",
          "name": "id",
          "type": "uint256"
        },
        {
          "internalType": "string",
          "name": "isim",
          "type": "string"
        },
        {
          "internalType": "string",
          "name": "aciklama",
          "type": "string"
        },
        {
          "internalType": "address",
          "name": "bildiren",
          "type": "address"
        },
        {
          "internalType": "enum YourContract.Status",
          "name": "durum",
          "type": "uint8"
        },
        {
          "internalType": "address",
          "name": "bulanKisi",
          "type": "address"
        },
        {
          "internalType": "string",
          "name": "iletisimNotu",
          "type": "string"
        },
        {
          "internalType": "string",
          "name": "gizliKonum",
          "type": "string"
        },
        {
          "internalType": "string",
          "name": "dogrulamaSorusu",
          "type": "string"
        },
        {
          "internalType": "address",
          "name": "onayliKisi",
          "type": "address"
        }
      ],
      "stateMutability": "view",
      "type": "function"
    },
    {
      "inputs": [
        {
          "internalType": "uint256",
          "name": "_id",
          "type": "uint256"
        },
        {
          "internalType": "address",
          "name": "_onaylanacakKisi",
          "type": "address"
        }
      ],
      "name": "kisiOnayla",
      "outputs": [],
      "stateMutability": "nonpayable",
      "type": "function"
    },
    {
      "inputs": [],
      "name": "sonrakiId",
      "outputs": [
        {
          "internalType": "uint256",
          "name": "",
          "type": "uint256"
        }
      ],
      "stateMutability": "view",
      "type": "function"
    },
    {
      "inputs": [
        {
          "internalType": "uint256",
          "name": "_id",
          "type": "uint256"
        },
        {
          "internalType": "string",
          "name": "_cevap",
          "type": "string"
        },
        {
          "internalType": "string",
          "name": "_iletisim",
          "type": "string"
        }
      ],
      "name": "talepOlustur",
      "outputs": [],
      "stateMutability": "nonpayable",
      "type": "function"
    },
    {
      "inputs": [
        {
          "internalType": "uint256",
          "name": "_id",
          "type": "uint256"
        }
      ],
      "name": "teslimEdildiIsaretle",
      "outputs": [],
      "stateMutability": "nonpayable",
      "type": "function"
    }
  ],
  "transactionHash": "0x0da5ac8b897fbbfa5ac8967d130b90fd2d08c1ea161dfeaa71ccef619c494bc9",
  "args": [],
  "numDeployments": 4,
  "solcInputHash": "fb9165efa77fd56abcfec9b8203b010a",
  "bytecode": "0x6080604052348015600f57600080fd5b50610e518061001f6000396000f3fe608060405234801561001057600080fd5b506004361061007d5760003560e01c80639d9840941161005b5780639d984094146100dc578063a1474952146100f3578063bd5b4ac414610106578063bea798631461011957600080fd5b806312f0ecfc146100825780638bfc4311146100b4578063999a17e7146100c9575b600080fd5b6100956100903660046108f9565b61012c565b6040516100ab9a99989796959493929190610978565b60405180910390f35b6100c76100c2366004610af7565b61043f565b005b6100c76100d7366004610af7565b61052a565b6100e560015481565b6040519081526020016100ab565b6100c76101013660046108f9565b610612565b6100c7610114366004610b69565b61069f565b6100c7610127366004610ba5565b610739565b6000602081905290815260409020805460018201805491929161014e90610c51565b80601f016020809104026020016040519081016040528092919081815260200182805461017a90610c51565b80156101c75780601f1061019c576101008083540402835291602001916101c7565b820191906000526020600020905b8154815290600101906020018083116101aa57829003601f168201915b5050505050908060020180546101dc90610c51565b80601f016020809104026020016040519081016040528092919081815260200182805461020890610c51565b80156102555780601f1061022a57610100808354040283529160200191610255565b820191906000526020600020905b81548152906001019060200180831161023857829003601f168201915b505050506003830154600484015460058501805494956001600160a01b0380851696600160a01b90950460ff1695509092169261029190610c51565b80601f01602080910402602001604051908101604052809291908181526020018280546102bd90610c51565b801561030a5780601f106102df5761010080835404028352916020019161030a565b820191906000526020600020905b8154815290600101906020018083116102ed57829003601f168201915b50505050509080600601805461031f90610c51565b80601f016020809104026020016040519081016040528092919081815260200182805461034b90610c51565b80156103985780601f1061036d57610100808354040283529160200191610398565b820191906000526020600020905b81548152906001019060200180831161037b57829003601f168201915b5050505050908060070180546103ad90610c51565b80601f01602080910402602001604051908101604052809291908181526020018280546103d990610c51565b80156104265780601f106103fb57610100808354040283529160200191610426565b820191906000526020600020905b81548152906001019060200180831161040957829003601f168201915b505050600890930154919250506001600160a01b03168a565b60008084815260208190526040902060030154600160a01b900460ff16600281111561046d5761046d610962565b146104b85760405162461bcd60e51b8152602060048201526016602482015275213a9032b9bcb0903d30ba32b710313ab63ab7323a9760511b60448201526064015b60405180910390fd5b60008381526020819052604090206004810180546001600160a01b031916331790556005016104e78382610cda565b5060008381526020819052604090206006016105038282610cda565b5050506000908152602081905260409020600301805460ff60a01b1916600160a01b179055565b6001600084815260208190526040902060030154600160a01b900460ff16600281111561055957610559610962565b146105b05760405162461bcd60e51b815260206004820152602160248201527f42752065737961206963696e2074616c6570206f6c7573747572756c616d617a6044820152601760f91b60648201526084016104af565b6000838152602081815260409182902060040180546001600160a01b0319163317905590516105e3918491849101610d99565b60408051601f1981840301815291815260008581526020819052206005019061060c9082610cda565b50505050565b6000818152602081905260409020600301546001600160a01b0316331461067b5760405162461bcd60e51b815260206004820152601a60248201527f53616465636520736168696269206b617061746162696c69722e00000000000060448201526064016104af565b6000908152602081905260409020600301805460ff60a01b1916600160a11b179055565b6000828152602081905260409020600301546001600160a01b031633146107085760405162461bcd60e51b815260206004820152601c60248201527f53616465636520736168696269206f6e61796c61796162696c69722e0000000060448201526064016104af565b60009182526020829052604090912060080180546001600160a01b0319166001600160a01b03909216919091179055565b6040518061014001604052806001548152602001858152602001848152602001336001600160a01b0316815260200183610774576000610777565b60015b600281111561078857610788610962565b815260006020808301829052604080518083018252838152818501528051808301825283815260608501526080840186905260a090930182905260018054835282825292909120835181559083015190918201906107e69082610cda565b50604082015160028201906107fb9082610cda565b5060608201516003820180546001600160a01b039092166001600160a01b03198316811782556080850151926001600160a81b03191617600160a01b83600281111561084957610849610962565b021790555060a08201516004820180546001600160a01b0319166001600160a01b0390921691909117905560c082015160058201906108889082610cda565b5060e0820151600682019061089d9082610cda565b5061010082015160078201906108b39082610cda565b506101209190910151600890910180546001600160a01b0319166001600160a01b03909216919091179055600180549060006108ee83610df4565b919050555050505050565b60006020828403121561090b57600080fd5b5035919050565b60005b8381101561092d578181015183820152602001610915565b50506000910152565b6000815180845261094e816020860160208601610912565b601f01601f19169290920160200192915050565b634e487b7160e01b600052602160045260246000fd5b8a81526101406020820152600061099361014083018c610936565b82810360408401526109a5818c610936565b6001600160a01b038b1660608501529050600389106109d457634e487b7160e01b600052602160045260246000fd5b8860808401526109ef60a08401896001600160a01b03169052565b82810360c0840152610a018188610936565b905082810360e0840152610a158187610936565b9050828103610100840152610a2a8186610936565b915050610a436101208301846001600160a01b03169052565b9b9a5050505050505050505050565b634e487b7160e01b600052604160045260246000fd5b600082601f830112610a7957600080fd5b813567ffffffffffffffff811115610a9357610a93610a52565b604051601f8201601f19908116603f0116810167ffffffffffffffff81118282101715610ac257610ac2610a52565b604052818152838201602001851015610ada57600080fd5b816020850160208301376000918101602001919091529392505050565b600080600060608486031215610b0c57600080fd5b83359250602084013567ffffffffffffffff811115610b2a57600080fd5b610b3686828701610a68565b925050604084013567ffffffffffffffff811115610b5357600080fd5b610b5f86828701610a68565b9150509250925092565b60008060408385031215610b7c57600080fd5b8235915060208301356001600160a01b0381168114610b9a57600080fd5b809150509250929050565b60008060008060808587031215610bbb57600080fd5b843567ffffffffffffffff811115610bd257600080fd5b610bde87828801610a68565b945050602085013567ffffffffffffffff811115610bfb57600080fd5b610c0787828801610a68565b93505060408501358015158114610c1d57600080fd5b9150606085013567ffffffffffffffff811115610c3957600080fd5b610c4587828801610a68565b91505092959194509250565b600181811c90821680610c6557607f821691505b602082108103610c8557634e487b7160e01b600052602260045260246000fd5b50919050565b601f821115610cd557806000526020600020601f840160051c81016020851015610cb25750805b601f840160051c820191505b81811015610cd25760008155600101610cbe565b50505b505050565b815167ffffffffffffffff811115610cf457610cf4610a52565b610d0881610d028454610c51565b84610c8b565b6020601f821160018114610d3c5760008315610d245750848201515b600019600385901b1c1916600184901b178455610cd2565b600084815260208120601f198516915b82811015610d6c5787850151825560209485019460019092019101610d4c565b5084821015610d8a5786840151600019600387901b60f8161c191681555b50505050600190811b01905550565b66021a2ab20a81d160cd1b815260008351610dbb816007850160208801610912565b6c0103e1024a622aa24a9a4a69d1609d1b6007918401918201528351610de8816014840160208801610912565b01601401949350505050565b600060018201610e1457634e487b7160e01b600052601160045260246000fd5b506001019056fea2646970667358221220314778a5bcc51ef755a6b2ba7aa5a6baf5371a176115a207526b01adfd4cd1fe64736f6c634300081e0033",
  "devdoc": {
    "kind": "dev",
    "methods": {},
    "version": 1
  },
  "userdoc": {
    "kind": "user",
    "methods": {},
    "version": 1
  },
  "storageLayout": {
    "storage": [
      {
        "astId": 32,
        "contract": "contracts/YourContract.sol:YourContract",
        "label": "esyalar",
        "offset": 0,
        "slot": "0",
        "type": "t_mapping(t_uint256,t_struct(Esya)27_storage)"
      },
      {
        "astId": 34,
        "contract": "contracts/YourContract.sol:YourContract",
        "label": "sonrakiId",
        "offset": 0,
        "slot": "1",
        "type": "t_uint256"
      }
    ],
    "types": {
      "t_address": {
        "encoding": "inplace",
        "label": "address",
        "numberOfBytes": "20"
      },
      "t_enum(Status)5": {
        "encoding": "inplace",
        "label": "enum YourContract.Status",
        "numberOfBytes": "1"
      },
      "t_mapping(t_uint256,t_struct(Esya)27_storage)": {
        "encoding": "mapping",
        "key": "t_uint256",
        "label": "mapping(uint256 => struct YourContract.Esya)",
        "numberOfBytes": "32",
        "value": "t_struct(Esya)27_storage"
      },
      "t_string_storage": {
        "encoding": "bytes",
        "label": "string",
        "numberOfBytes": "32"
      },
      "t_struct(Esya)27_storage": {
        "encoding": "inplace",
        "label": "struct YourContract.Esya",
        "members": [
          {
            "astId": 7,
            "contract": "contracts/YourContract.sol:YourContract",
            "label": "id",
            "offset": 0,
            "slot": "0",
            "type": "t_uint256"
          },
          {
            "astId": 9,
            "contract": "contracts/YourContract.sol:YourContract",
            "label": "isim",
            "offset": 0,
            "slot": "1",
            "type": "t_string_storage"
          },
          {
            "astId": 11,
            "contract": "contracts/YourContract.sol:YourContract",
            "label": "aciklama",
            "offset": 0,
            "slot": "2",
            "type": "t_string_storage"
          },
          {
            "astId": 13,
            "contract": "contracts/YourContract.sol:YourContract",
            "label": "bildiren",
            "offset": 0,
            "slot": "3",
            "type": "t_address"
          },
          {
            "astId": 16,
            "contract": "contracts/YourContract.sol:YourContract",
            "label": "durum",
            "offset": 20,
            "slot": "3",
            "type": "t_enum(Status)5"
          },
          {
            "astId": 18,
            "contract": "contracts/YourContract.sol:YourContract",
            "label": "bulanKisi",
            "offset": 0,
            "slot": "4",
            "type": "t_address"
          },
          {
            "astId": 20,
            "contract": "contracts/YourContract.sol:YourContract",
            "label": "iletisimNotu",
            "offset": 0,
            "slot": "5",
            "type": "t_string_storage"
          },
          {
            "astId": 22,
            "contract": "contracts/YourContract.sol:YourContract",
            "label": "gizliKonum",
            "offset": 0,
            "slot": "6",
            "type": "t_string_storage"
          },
          {
            "astId": 24,
            "contract": "contracts/YourContract.sol:YourContract",
            "label": "dogrulamaSorusu",
            "offset": 0,
            "slot": "7",
            "type": "t_string_storage"
          },
          {
            "astId": 26,
            "contract": "contracts/YourContract.sol:YourContract",
            "label": "onayliKisi",
            "offset": 0,
            "slot": "8",
            "type": "t_address"
          }
        ],
        "numberOfBytes": "288"
      },
      "t_uint256": {
        "encoding": "inplace",
        "label": "uint256",
        "numberOfBytes": "32"
      }
    }
  }
}